{
  "_format": "hh-sol-artifact-1",
  "contractName": "BuyMeACoffee",
  "sourceName": "contracts/BuyMeACoffee.sol",
  "abi": [
    {
      "inputs": [],
      "stateMutability": "nonpayable",
      "type": "constructor"
    },
    {
      "anonymous": false,
      "inputs": [
        {
          "indexed": true,
          "internalType": "address",
          "name": "from",
          "type": "address"
        },
        {
          "indexed": false,
          "internalType": "string",
          "name": "message",
          "type": "string"
        },
        {
          "indexed": false,
          "internalType": "string",
          "name": "name",
          "type": "string"
        },
        {
          "indexed": false,
          "internalType": "uint256",
          "name": "timestamp",
          "type": "uint256"
        }
      ],
      "name": "NewMemo",
      "type": "event"
    },
    {
      "inputs": [
        {
          "internalType": "string",
          "name": "_name",
          "type": "string"
        },
        {
          "internalType": "string",
          "name": "_message",
          "type": "string"
        }
      ],
      "name": "buyCoffee",
      "outputs": [],
      "stateMutability": "payable",
      "type": "function"
    },
    {
      "inputs": [],
      "name": "getMemos",
      "outputs": [
        {
          "components": [
            {
              "internalType": "address",
              "name": "from",
              "type": "address"
            },
            {
              "internalType": "string",
              "name": "message",
              "type": "string"
            },
            {
              "internalType": "string",
              "name": "name",
              "type": "string"
            },
            {
              "internalType": "uint256",
              "name": "timestamp",
              "type": "uint256"
            }
          ],
          "internalType": "struct BuyMeACoffee.Memo[]",
          "name": "",
          "type": "tuple[]"
        }
      ],
      "stateMutability": "view",
      "type": "function"
    },
    {
      "inputs": [],
      "name": "withdrawTips",
      "outputs": [],
      "stateMutability": "nonpayable",
      "type": "function"
    }
  ],
  "bytecode": "0x608060405234801561001057600080fd5b5033600160006101000a81548173ffffffffffffffffffffffffffffffffffffffff021916908373ffffffffffffffffffffffffffffffffffffffff160217905550610c6d806100616000396000f3fe6080604052600436106100345760003560e01c8063204206e1146100395780633aaa74b214610055578063865c51721461006c575b600080fd5b610053600480360381019061004e91906105b0565b610097565b005b34801561006157600080fd5b5061006a610211565b005b34801561007857600080fd5b50610081610273565b60405161008e919061082d565b60405180910390f35b600034116100da576040517f08c379a00000000000000000000000000000000000000000000000000000000081526004016100d1906108ac565b60405180910390fd5b600060405180608001604052803373ffffffffffffffffffffffffffffffffffffffff16815260200183815260200184815260200142815250908060018154018082558091505060019003906000526020600020906004020160009091909190915060008201518160000160006101000a81548173ffffffffffffffffffffffffffffffffffffffff021916908373ffffffffffffffffffffffffffffffffffffffff16021790555060208201518160010190816101989190610ad8565b5060408201518160020190816101ae9190610ad8565b506060820151816003015550503373ffffffffffffffffffffffffffffffffffffffff167fd42e89b4c5fbb2f2d060a3f55bf87f221232809d3b09e1833bd8f7e03227558082844260405161020593929190610bf2565b60405180910390a25050565b600160009054906101000a900473ffffffffffffffffffffffffffffffffffffffff1673ffffffffffffffffffffffffffffffffffffffff166108fc479081150290604051600060405180830381858888f1935050505061027157600080fd5b565b60606000805480602002602001604051908101604052809291908181526020016000905b8282101561044d57838290600052602060002090600402016040518060800160405290816000820160009054906101000a900473ffffffffffffffffffffffffffffffffffffffff1673ffffffffffffffffffffffffffffffffffffffff1673ffffffffffffffffffffffffffffffffffffffff168152602001600182018054610320906108fb565b80601f016020809104026020016040519081016040528092919081815260200182805461034c906108fb565b80156103995780601f1061036e57610100808354040283529160200191610399565b820191906000526020600020905b81548152906001019060200180831161037c57829003601f168201915b505050505081526020016002820180546103b2906108fb565b80601f01602080910402602001604051908101604052809291908181526020018280546103de906108fb565b801561042b5780601f106104005761010080835404028352916020019161042b565b820191906000526020600020905b81548152906001019060200180831161040e57829003601f168201915b5050505050815260200160038201548152505081526020019060010190610297565b50505050905090565b6000604051905090565b600080fd5b600080fd5b600080fd5b600080fd5b6000601f19601f8301169050919050565b7f4e487b7100000000000000000000000000000000000000000000000000000000600052604160045260246000fd5b6104bd82610474565b810181811067ffffffffffffffff821117156104dc576104db610485565b5b80604052505050565b60006104ef610456565b90506104fb82826104b4565b919050565b600067ffffffffffffffff82111561051b5761051a610485565b5b61052482610474565b9050602081019050919050565b82818337600083830152505050565b600061055361054e84610500565b6104e5565b90508281526020810184848401111561056f5761056e61046f565b5b61057a848285610531565b509392505050565b600082601f8301126105975761059661046a565b5b81356105a7848260208601610540565b91505092915050565b600080604083850312156105c7576105c6610460565b5b600083013567ffffffffffffffff8111156105e5576105e4610465565b5b6105f185828601610582565b925050602083013567ffffffffffffffff81111561061257610611610465565b5b61061e85828601610582565b9150509250929050565b600081519050919050565b600082825260208201905092915050565b6000819050602082019050919050565b600073ffffffffffffffffffffffffffffffffffffffff82169050919050565b600061067f82610654565b9050919050565b61068f81610674565b82525050565b600081519050919050565b600082825260208201905092915050565b60005b838110156106cf5780820151818401526020810190506106b4565b60008484015250505050565b60006106e682610695565b6106f081856106a0565b93506107008185602086016106b1565b61070981610474565b840191505092915050565b6000819050919050565b61072781610714565b82525050565b60006080830160008301516107456000860182610686565b506020830151848203602086015261075d82826106db565b9150506040830151848203604086015261077782826106db565b915050606083015161078c606086018261071e565b508091505092915050565b60006107a3838361072d565b905092915050565b6000602082019050919050565b60006107c382610628565b6107cd8185610633565b9350836020820285016107df85610644565b8060005b8581101561081b57848403895281516107fc8582610797565b9450610807836107ab565b925060208a019950506001810190506107e3565b50829750879550505050505092915050565b6000602082019050818103600083015261084781846107b8565b905092915050565b600082825260208201905092915050565b7f56616c7565206d757374206265206d6f7265207468616e203120455448000000600082015250565b6000610896601d8361084f565b91506108a182610860565b602082019050919050565b600060208201905081810360008301526108c581610889565b9050919050565b7f4e487b7100000000000000000000000000000000000000000000000000000000600052602260045260246000fd5b6000600282049050600182168061091357607f821691505b602082108103610926576109256108cc565b5b50919050565b60008190508160005260206000209050919050565b60006020601f8301049050919050565b600082821b905092915050565b60006008830261098e7fffffffffffffffffffffffffffffffffffffffffffffffffffffffffffffffff82610951565b6109988683610951565b95508019841693508086168417925050509392505050565b6000819050919050565b60006109d56109d06109cb84610714565b6109b0565b610714565b9050919050565b6000819050919050565b6109ef836109ba565b610a036109fb826109dc565b84845461095e565b825550505050565b600090565b610a18610a0b565b610a238184846109e6565b505050565b5b81811015610a4757610a3c600082610a10565b600181019050610a29565b5050565b601f821115610a8c57610a5d8161092c565b610a6684610941565b81016020851015610a75578190505b610a89610a8185610941565b830182610a28565b50505b505050565b600082821c905092915050565b6000610aaf60001984600802610a91565b1980831691505092915050565b6000610ac88383610a9e565b9150826002028217905092915050565b610ae182610695565b67ffffffffffffffff811115610afa57610af9610485565b5b610b0482546108fb565b610b0f828285610a4b565b600060209050601f831160018114610b425760008415610b30578287015190505b610b3a8582610abc565b865550610ba2565b601f198416610b508661092c565b60005b82811015610b7857848901518255600182019150602085019450602081019050610b53565b86831015610b955784890151610b91601f891682610a9e565b8355505b6001600288020188555050505b505050505050565b6000610bb582610695565b610bbf818561084f565b9350610bcf8185602086016106b1565b610bd881610474565b840191505092915050565b610bec81610714565b82525050565b60006060820190508181036000830152610c0c8186610baa565b90508181036020830152610c208185610baa565b9050610c2f6040830184610be3565b94935050505056fea2646970667358221220c3cf141c564579f14da48b5917ecfb84dd01e49383871ccaa6cdd0b6171cff7064736f6c63430008180033",
  "linkReferences": {},
  "deployedLinkReferences": {}
}